:100000000C9462000C948A000C948A000C948A0070
:100010000C948A000C948A000C948A000C948A0038
:100020000C948A000C948A000C948A000C948A0028
:100030000C948A000C948A000C948A000C948A0018
:100040000C946B040C948A000C948A000C948A0023
:100050000C948A000C948A000C948A000C948A00F8
:100060000C948A000C948A000000000024002700F1
:100070002A0000000000250028002B0000000000DE
:1000800023002600290004040404040404040202DA
:100090000202020203030303030301020408102007
:1000A0004080010204081020010204081020000012
:1000B0000008000201000003040700000000000027
:1000C00000003B0611241FBECFEFD8E0DEBFCDBF3E
:1000D00021E0A6E3B1E001C01D92A736B207E1F727
:1000E00011E0A0E0B1E0EEECF0E102C005900D926D
:1000F000A633B107D9F710E0C2E6D0E004C02197DB
:10010000FE010E945F08C136D107C9F70E94B504FD
:100110000C9465080C940000AF92BF92CF92DF92CE
:10012000EF92FF920F931F93CF93DF936C017B01AC
:100130008B01040F151FEB015E01AE18BF08C0173D
:10014000D10759F06991D601ED91FC910190F081B0
:10015000E02DC6010995892B79F7C501DF91CF9173
:100160001F910F91FF90EF90DF90CF90BF90AF90D5
:100170000895833081F028F4813099F08230A9F01D
:1001800008958730A9F08830C9F08430B1F48091A7
:1001900080008F7D03C0809180008F7780938000E6
:1001A000089584B58F7784BD089584B58F7DFBCF86
:1001B0008091B0008F778093B00008958091B00057
:1001C0008F7DF9CFCF93DF93282F30E0F901E255EF
:1001D000FF4F8491F901E656FF4FD491F901EA5798
:1001E000FF4FC491CC23A1F081110E94B900EC2FE4
:1001F000F0E0EE0FFF1FE458FF4FA591B491EC9192
:10020000ED2381E090E009F480E0DF91CF91089543
:1002100080E090E0FACF1F93CF93DF93282F30E058
:10022000F901E255FF4F8491F901E656FF4FD49151
:10023000F901EA57FF4FC491CC23A9F0162F811181
:100240000E94B900EC2FF0E0EE0FFF1FEE58FF4FB9
:10025000A591B4918FB7F894EC91111108C0D09585
:10026000DE23DC938FBFDF91CF911F910895DE2BAA
:10027000F8CFCF93DF9390E0FC01E656FF4F249137
:100280008A579F4FFC0184918823D1F090E0880F1A
:10029000991FFC01E859FF4FA591B491FC01EE585C
:1002A000FF4FC591D49161110EC09FB7F8948C9106
:1002B000E22FE0958E238C932881E223E8839FBF71
:1002C000DF91CF9108958FB7F894EC91E22BEC93E6
:1002D0008FBFF6CF8E3008F08E5087708064809389
:1002E0007C0080917A00806480937A0080917A000B
:1002F00086FDFCCF809178009091790008953FB7FA
:10030000F8948091370190913801A0913901B09112
:100310003A0126B5A89B05C02F3F19F00196A11DF3
:10032000B11D3FBFBA2FA92F982F8827BC01CD013F
:10033000620F711D811D911D42E0660F771F881F9E
:10034000991F4A95D1F708958F929F92AF92BF92CD
:10035000CF92DF92EF92FF926B017C010E947F01AE
:100360004B015C01C114D104E104F104B9F00E9415
:100370007F01681979098A099B09683E73408105E4
:10038000910580F321E0C21AD108E108F10888EE56
:10039000880E83E0981EA11CB11CE4CFFF90EF9063
:1003A000DF90CF90BF90AF909F908F9008957F92F5
:1003B0008F929F92AF92BF92CF92DF92EF92FF9275
:1003C0000F931F93CF93DF93EC0160914B017091DA
:1003D0004C0180914D0190914E010E94A40161E079
:1003E000809149010E94390160E0809149010E9499
:1003F0000B0162E170E080E090E00E94A40161E006
:10040000809149010E940B018BE990E00197F1F77F
:1004100060E0809149010E9439018FB7F894C09043
:100420004501D0904601E0904701F09048018FBF10
:10043000809149010E94E200019729F52FB7F894B5
:100440008091450190914601A0914701B0914801EA
:100450002FBF8C199D09AE09BF09893E9340A105A4
:10046000B10530F30DEF10E0C801DF91CF911F917E
:100470000F91FF90EF90DF90CF90BF90AF909F9043
:100480008F907F900895809149010E94E2008C0135
:10049000892B41F72BE3E22EFF24F394C701019748
:1004A000F1F7809149010E94E2000197D9F6C70156
:1004B0000197F1F76E014E0185E0880E911C93E7DC
:1004C000A92EB12C87E0E82EF12C712C80914901E6
:1004D0000E94E200892BD1F3C5010197F1F78091C9
:1004E00049010E94E2008130910531F40E2C01C0D7
:1004F000880F0A94EAF7782A809149010E94E20065
:100500000197D1F3E1E0EE1AF10800F7F6017192DC
:100510006F01FDEF7F1609F4A5CFC814D90491F639
:100520004C8128818981280F3327331F8A81280F26
:10053000311D8B81820F932F911D99274817190622
:1005400009F492CF0EEF10E08FCF089590E080E095
:100550000895FC0101900020E9F73197AF01481B95
:10056000590BBC018FE491E00C948C008F929F9208
:10057000AF92BF920F931F93CF93DF93CDB7DEB7A8
:10058000A1970FB6F894DEBF0FBECDBF19A24230BF
:1005900008F44AE08E010F5D1F4F842E912CB12C80
:1005A000A12CA50194010E943D08E62FB901CA01C2
:1005B000EA30F4F4E05DD801EE938D01232B242B77
:1005C000252B79F790E080E0109719F0CD010E947B
:1005D000A902A1960FB6F894DEBF0FBECDBFDF9182
:1005E000CF911F910F91BF90AF909F908F900895E2
:1005F000E95CE1CFCF93DF93EC0160E08E810E9454
:100600000B0161E08E810E940B0160E08E810E94EF
:100610000B018BE891E00197F1F7DF91CF910895FD
:10062000CF92DF92EF92FF920F931F93CF93DF93BE
:100630006C017C0187E0E80EF11CD0E0C0E0062FE1
:1006400010E0B8010C2E02C0759567950A94E2F788
:100650006170F70181917F010E940B012196C430E6
:10066000D10579F7C601DF91CF911F910F91FF90CE
:10067000EF90DF90CF900C94FA02CF92DF92EF923E
:10068000FF920F931F93CF93DF93EC01F62E642F0D
:100690008C810E940B018D818F3F19F060E00E94D8
:1006A0000B010F2D10E08F8584FF25C06E0187E0C0
:1006B000C80ED11CF12CE12CB8010E2C02C075958E
:1006C00067950A94E2F76170F60181916F010E94CB
:1006D0000B01FFEFEF1AFF0A88E0E816F10461F75B
:1006E000CE01DF91CF911F910F91FF90EF90DF909E
:1006F000CF900C94FA02B80184E0759567958A95BD
:10070000E1F7CE010E9410036F2DCE01DF91CF9152
:100710001F910F91FF90EF90DF90CF900C941003FA
:1007200040E0682F8FE491E00C943D03CF93DF937A
:10073000823029F490915E01986090935E018093DD
:1007400062011092630180E48093640180E18093F0
:10075000650180E58093660161E0809153010E940C
:100760003901809154018F3F19F061E00E943901F5
:1007700061E0809155010E943901CFE4D1E09E01F2
:100780002F54314080915E0184FD0BC084E090E0E5
:1007900021962817390744F461E08E810E943901BF
:1007A000EECF88E090E0F4CF8BE39DE00197F1F786
:1007B00060E0809153010E940B0160E0809155013F
:1007C0000E940B01809154018F3F19F060E00E945C
:1007D0000B0180915E0184FD39C063E08FE491E0FC
:1007E0000E941003CBE4D6E4CE010197F1F763E059
:1007F0008FE491E00E9410032197F1F763E08FE40A
:1008000091E00E94100383E592E00197F1F762E026
:100810008FE491E00E94100380915E0180620E944B
:10082000900384E080935F018CE00E94900381E05C
:100830000E9490038BE39FE10197F1F782E08093A0
:10084000600186E0DF91CF910C94900380620E945A
:1008500090038BE496E40197F1F780915E0180624A
:100860000E94900383E592E00197F1F780915E0189
:1008700080620E949003D0CF41E00E943D0381E05E
:1008800090E00895CF92DF92EF92FF926C01990F62
:10089000EE08FF08F7FE16C041E06DE28FE491E03C
:1008A0000E943D0366277727CB016C197D098E09CD
:1008B0009F094AE00E94B6020196FF90EF90DF90F8
:1008C000CF9008954AE0C701B601FF90EF90DF9006
:1008D000CF900C94B6021F920F920FB60F92112474
:1008E0002F933F938F939F93AF93BF938091450135
:1008F00090914601A0914701B09148013091360195
:1009000023E0230F2D3758F50196A11DB11D20932B
:1009100036018093450190934601A0934701B0931F
:1009200048018091370190913801A0913901B0912F
:100930003A010196A11DB11D8093370190933801B2
:10094000A0933901B0933A01BF91AF919F918F91DC
:100950003F912F910F900FBE0F901F90189526E892
:10096000230F0296A11DB11DD2CFCF93DF9300D0EC
:1009700000D01F92CDB7DEB7789484B5826084BD75
:1009800084B5816084BD85B5826085BD85B5816093
:1009900085BD80916E00816080936E001092810011
:1009A00080918100826080938100809181008160CC
:1009B000809381008091800081608093800080918D
:1009C000B10084608093B1008091B0008160809319
:1009D000B00080917A00846080937A0080917A00E0
:1009E000826080937A0080917A00816080937A009F
:1009F00080917A00806880937A001092C10061E053
:100A000082E00E94390182E00E94960300E010E03B
:100A1000E1E0809162018111E0E0E195F0E0E15BCD
:100A2000FE4F848980680E949003CE0101960E9447
:100A3000D701009711F48B8190E09093440180934B
:100A40004301CE0101960E94D701009719F46981F4
:100A5000862F90E0BC01990F880B990B0E947A06B3
:100A600060933F0170934001809341019093420154
:100A70008CE091E00E94A902809143019091440191
:100A80000E94420480E191E00E94A902C0903F01CF
:100A9000D0904001E0904101F0904201A701960101
:100AA000C701B6010E943808882309F44BC087E1CA
:100AB00091E00E94A902E0916201E23008F0D6C004
:100AC000E150F0E0E15BFE4F848980680E94900372
:100AD0008FE00E946A0190933E0180933D0183E282
:100AE00091E00E94A90280913D0190913E01843FD6
:100AF00091400CF4BDC086E291E00E94A9028EE014
:100B00000E946A0190933C0180933B0180E391E055
:100B10000E94A90280913B0190913C010E944204F5
:100B200080913B0190913C018039914024F461E037
:100B300082E00E940B010115110509F469CF0E94A2
:100B4000000066CF46015701E894B7F82FEF3FEF5A
:100B50004FE75FE7C501B4010E94380881110DC05D
:100B60002FEF3FEF4FE75FE7C501B4010E94730627
:100B700018161CF48BE191E09CCF2FEF3FEF4FE76D
:100B80005FE4C701B6010E94330818161CF48FE118
:100B900091E08FCF2FEF3FEF4FE75FECC701B6013A
:100BA0000E94730687FDF3CF20E030E0A901C70162
:100BB000B6010E94730687FF0AC041E06DE28FE430
:100BC00091E00E943D03F7FAF094F7F8F0942AE0E0
:100BD00037ED43EA5BE3C701B6010E9498074B017A
:100BE0005C010E9404086B017C010E9478069B0155
:100BF000AC01C501B4010E9497074B015C014AE0BA
:100C0000C701B6010E94B60241E06EE28FE491E0B6
:100C10000E943D0320E030E040E251E4C501B40110
:100C20000E94D9064B015C010E9404086B01F12C63
:100C3000E12C4AE0C701B6010E94B602C701B60125
:100C40000E9478069B01AC01C501B4010E94970780
:100C500020E030E040E251E40E94D9060E940408FE
:100C600090E080E04AE00E94B60225CFE1E029CF83
:100C70008BE291E042CFCF93DF93EFE4F1E0138278
:100C8000128284E091E09183808388E084838FEFF7
:100C9000858389E086838AE087838BE080878CE088
:100CA00081878DE0828713861486158616861786BF
:100CB00081E00E949603C9E4D1E086E090E0998348
:100CC000888384EF91E0A0E0B0E08A839B83AC83CB
:100CD000BD8361E086E00E94390161E08881DF9197
:100CE000CF910C940B010E94B50608F481E00895A1
:100CF000E89409C097FB3EF49095809570956195B6
:100D00007F4F8F4F9F4F9923A9F0F92F96E9BB276B
:100D10009395F695879577956795B795F111F8CFE7
:100D2000FAF4BB0F11F460FF1BC06F5F7F4F8F4F52
:100D30009F4F16C0882311F096E911C0772321F048
:100D40009EE8872F762F05C0662371F096E8862FE0
:100D500070E060E02AF09A95660F771F881FDAF737
:100D6000880F9695879597F90895990F0008550F64
:100D7000AA0BE0E8FEEF16161706E807F907C0F021
:100D800012161306E407F50798F0621B730B840B29
:100D9000950B39F40A2661F0232B242B252B21F403
:100DA00008950A2609F4A140A6958FEF811D811DA3
:100DB00008950E94EC060C945D070E944F0738F0DE
:100DC0000E94560720F0952311F00C9446070C94CE
:100DD0004C0711240C9491070E946E0770F3959FA5
:100DE000C1F3950F50E0551F629FF001729FBB2722
:100DF000F00DB11D639FAA27F00DB11DAA1F649FBE
:100E00006627B00DA11D661F829F2227B00DA11D70
:100E1000621F739FB00DA11D621F839FA00D611DF6
:100E2000221F749F3327A00D611D231F849F600D17
:100E3000211D822F762F6A2F11249F5750409AF040
:100E4000F1F088234AF0EE0FFF1FBB1F661F771FCC
:100E5000881F91505040A9F79E3F510580F00C9497
:100E600046070C9491075F3FE4F3983ED4F38695D0
:100E700077956795B795F795E7959F5FC1F7FE2B37
:100E8000880F911D9695879597F9089597F99F6713
:100E900080E870E060E008959FEF80EC0895002402
:100EA0000A941616170618060906089500240A94CF
:100EB00012161306140605060895092E0394000C55
:100EC00011F4882352F0BB0F40F4BF2B11F460FFE4
:100ED00004C06F5F7F4F8F4F9F4F089557FD90580D
:100EE000440F551F59F05F3F71F04795880F97FBEE
:100EF000991F61F09F3F79F08795089512161306A8
:100F00001406551FF2CF4695F1DF08C016161706D6
:100F10001806991FF1CF869571056105089408950B
:100F2000E894BB2766277727CB0197F90895505897
:100F3000BB27AA270E94AF070C945D070E944F07AA
:100F400038F00E94560720F039F49F3F19F426F438
:100F50000C944C070EF4E095E7FB0C944607E92F40
:100F60000E946E0758F3BA17620773078407950744
:100F700020F079F4A6F50C9490070EF4E0950B2E72
:100F8000BA2FA02D0B01B90190010C01CA01A001DB
:100F90001124FF27591B99F0593F50F4503E68F136
:100FA0001A16F040A22F232F342F4427585FF3CF77
:100FB000469537952795A795F0405395C9F77EF448
:100FC0001F16BA0B620B730B840BBAF09150A1F091
:100FD000FF0FBB1F661F771F881FC2F70EC0BA0F17
:100FE000621F731F841F48F4879577956795B7959F
:100FF000F7959E3F08F0B0CF9395880F08F099279A
:10100000EE0F9795879508950E94760788F09F5771
:1010100098F0B92F9927B751B0F0E1F0660F771F1C
:10102000881F991F1AF0BA95C9F714C0B13091F012
:101030000E949007B1E008950C949007672F782FD5
:101040008827B85F39F0B93FCCF3869577956795D7
:10105000B395D9F73EF490958095709561957F4F43
:101060008F4F9F4F08950E94B50608F48FEF0895A3
:101070000E94B506880B990B0895A1E21A2EAA1BAF
:10108000BB1BFD010DC0AA1FBB1FEE1FFF1FA21738
:10109000B307E407F50720F0A21BB30BE40BF50B35
:1010A000661F771F881F991F1A9469F760957095BE
:1010B000809590959B01AC01BD01CF010895EE0F85
:0E10C000FF1F0590F491E02D0994F894FFCFE6
:1010CE00000000003C048C00A602A502543A200049
:1010DE00202020483A20006E616E00696E66006F17
:1010EE007666004C3A0048696768004C6F772000BE
:0610FE0020204D3A200005
:00000001FF
